:020000040800F2
:100000004010002049010008F5200008F7200008F2
:10001000FB200008FF20000803210008000000006A
:1000200000000000000000000000000007210008A0
:1000300009210008000000000B21000861010008F0
:100040006301000863010008630100086301000800
:1000500063010008630100086301000863010008F0
:1000600063010008630100086301000863010008E0
:1000700063010008630100086301000863010008D0
:1000800063010008630100086301000863010008C0
:10009000630100086301000863010008DD32000805
:1000A00063010008630100086301000863010008A0
:1000B00063010008672F000863010008630100085E
:1000C0006301000863010008630100086301000880
:1000D0006301000825240008472300086301000885
:1000E0006301000863010008630100086301000860
:1000F0006301000863010008630100086301000850
:10010000630100086301000863010008630100083F
:10011000630100086301000863010008630100082F
:10012000630100086301000863010008630100081F
:10013000DFF810D005F086FF004800478B1E00084E
:10014000AFF3008040100020064880470648004773
:10015000FEE7FEE7FEE7FEE7FEE7FEE7FEE7FEE777
:10016000FEE7FEE74B020008310100080CB5002055
:10017000019000906C48006840F480306A49086043
:1001800000BF6948006800F4003000900198401CEE
:100190000190009818B90198B0F5A06FF1D16248AC
:1001A000006800F4003010B10120009001E0002050
:1001B00000900098012843D15C48006840F010008E
:1001C0005A4908600846006820F0030008600846A5
:1001D000006840F002000860534840685249486097
:1001E0000846406848600846406840F480604860BF
:1001F0000846406820F47C1048600846406840F497
:10020000E81048600846006840F08070086000BF51
:100210004548006800F000700028F9D04248406866
:1002200020F00300404948600846406840F0020062
:10023000486000BF3C48406800F00C000828F9D135
:100240000CBD10B5FFF792FF10BD10B53648006821
:1002500040F00100344908600846406834490840CD
:100260003149486008460068324908402E49086014
:100270000846006820F4802008600846406820F4A2
:10028000FE0048604FF41F008860FFF7DAFF4FF070
:1002900000602949086010BD10B50021002000222F
:1002A000214B5B6803F00C0121B1042906D0082919
:1002B00028D107E0214B224C236027E01F4B204C24
:1002C000236023E0184B5B6803F47010164B5B68E7
:1002D00003F48032022303EB904022B9194B4343CD
:1002E000174C23600DE0104B5B6803F4003323B11F
:1002F000144B4343124C236003E0104B4343104C18
:10030000236003E00D4B0E4C236000BF00BF064B83
:100310005B68C3F303130C4CE15C094B1B68CB40D7
:10032000074C236010BD0000001002400020024076
:100330000000FFF8FFFFF6FE08ED00E000127A0073
:100340000000002000093D00040000203149014365
:10035000314A1160704770B5002100230F22C47824
:1003600004B32D4C246804F4E064C4F5E064210A6D
:10037000C1F10403CA40447804FA03F184781440BC
:1003800021430901254C0678A155047804F01F0586
:100390000124AC4005786D11AD0005F1E025C5F8EC
:1003A000004109E0047804F01F050124AC401C4D15
:1003B0000678761145F8264070BD1A4A0A40024375
:1003C000154B1B1F1A60704739B1134A121D126872
:1003D0000243114B1B1D1A6006E00F4A121D1268E2
:1003E00082430D4B1B1D1A607047042808D14FF043
:1003F000E021096941F004014FF0E022116107E0BA
:100400004FF0E021096921F004014FF0E022116171
:10041000704700000000FA050CED00E000E400E089
:1004200080E100E080FFFF1F002044490860091DB3
:100430000860091D0860091D086041483F491431E2
:100440000860704700213D498279002A3AD00A4667
:10045000126803689A430B461A600A1D1268036803
:100460009A430B1D1A60027911440A6803681A4303
:100470000A60324A0832126803689A432F4B0833E5
:100480001A601A1D126803689A432C4B0C331A60C9
:100490004279102A0ED11A1F126803681A43274B9B
:1004A00008331A601A1D126803681A43234B0C3371
:1004B0001A600DE02149427911440A6803681A4321
:1004C0000A6005E0027911440A6803689A430A60E9
:1004D00070470021016001710C214171002181717F
:1004E00070471649103109680143144A10321160EF
:1004F000704701460020114A143212680A400AB1BE
:10050000012000E0002070470C491431086070475A
:10051000014600200022094B1B6803EA0102074B39
:1005200014331B680B4013B10AB1012000E0002016
:100530007047024914310860704700000004014010
:10054000FFFF0F0010B50446CC48844208D10121BA
:10055000042000F02DFB0021042000F029FB46E0E0
:10056000C748844208D10121082000F021FB002166
:10057000082000F01DFB3AE0C248844208D1012166
:10058000102000F015FB0021102000F011FB2EE0E0
:10059000BD48844208D10121202000F009FB002140
:1005A000202000F005FB22E0B848844208D1012158
:1005B000402000F0FDFA0021402000F0F9FA16E09A
:1005C000B348844208D10121802000F0F1FA0021D3
:1005D000802000F0EDFA0AE0AE48844207D1012104
:1005E000801500F0E5FA0021A01500F0E1FA10BD39
:1005F00010B50121084600F0DBFA0021012000F0CF
:10060000D7FA10BD2DE9F041024600250026002052
:1006100000230024002791F803C00CF00F0591F887
:1006200003C00CF0100CBCF1000F03D091F802C015
:100630004CEA050591F800C0BCF1000F31D01468F8
:1006400000202BE04FF0010C0CFA00F3B1F800C0D1
:100650000CEA03069E4220D183004FF00F0C0CFAE7
:1006600003F7BC4305FA03FC4CEA040491F803C009
:10067000BCF1280F06D14FF0010C0CFA00FCC2F8B7
:1006800014C00AE091F803C0BCF1480F05D14FF047
:10069000010C0CFA00FCC2F810C0401C0828D1D391
:1006A0001460B1F800C0BCF1FF0F34DD54680020C5
:1006B0002EE000F1080C4FF0010808FA0CF3B1F835
:1006C00000C00CEA03069E4221D183004FF00F0CBC
:1006D0000CFA03F7BC4305FA03FC4CEA040491F856
:1006E00003C0BCF1280F05D100F1080C08FA0CF882
:1006F000C2F8148091F803C0BCF1480F07D100F193
:10070000080C4FF0010808FA0CF8C2F81080401CE1
:100710000828CED35460BDE8F0814FF6FF71018008
:10072000022181700421C170704702460020936845
:100730000B400BB1012000E00020704701468868A3
:1007400080B2704702460020D3680B400BB10120F5
:1007500000E0002070470146C86880B27047016120
:100760007047416170470AB1016100E04161704723
:10077000C16070474FF480320A43826181618261B7
:1007800082698269704702460020434B18684FF621
:100790008073184040EA021008433F4B18607047CE
:1007A0003E49C8617047F0B50A4600230024002185
:1007B000002500F00046B6F1004F02D1364EF16937
:1007C00001E0354E7168C0F3034583B200F4401672
:1007D000B6F5401F08D121F070612F4E766826F0E3
:1007E00070662D4F7E6012E000F48016B6F5801F13
:1007F00006D1032606FA05F4A14341F0706106E034
:10080000460D360103FA06F6B14341F0706122B19C
:10081000460D360103FA06F6314300F00046B6F104
:10082000004F02D11C4EF16101E01B4E7160F0BD22
:1008300030B500228B071C0F0F2303FA04F2164B6E
:1008400008338C1053F824309343134C08348D1024
:1008500044F8253023468C1053F824308C07240F9D
:1008600000FA04F423430C4C08348D1044F825306E
:1008700030BD0A49DC3108607047000000080140C3
:10088000000C01400010014000140140001801401C
:10089000001C0140002001400000014000002042F7
:1008A000DF48006840F00100DD4908600846406804
:1008B000DC490840DA49486008460068DA490840DF
:1008C000D74908600846006820F480200860084680
:1008D000406820F4FE0048604FF41F0088607047B5
:1008E000CF49096821F48031CD4A11601146096869
:1008F00021F480211160B0F5803F03D0B0F5802F46
:100900000ED106E0C649096841F48031C44A11603D
:1009100007E0C349096841F4A021C14A116000E021
:1009200000BF00BF704710B5014600220023002021
:100930004A11012A02D1BA4C236806E0022A02D1E8
:10094000B74C236A01E0B64C636A01F01F02012430
:1009500094401C400CB1012000E0002010BD38B5CF
:10096000002000900024002500BF3120FFF7DBFFAE
:1009700005460098401C00900098B0F5A06F01D08B
:10098000002DF2D03120FFF7CEFF08B1012400E0A6
:100990000024204638BD01460020A14A106820F0FE
:1009A000F80040EAC10010607047A0490860704735
:1009B000024600209A4B586820F47C1042EA01035A
:1009C0001843974B5860704798490866704701462E
:1009D0000020934A506820F003000843506070479D
:1009E0008F48406800F00C007047014600208C4A98
:1009F000506820F0F0000843506070470146002026
:100A0000874A506820F4E060084350607047014610
:100A10000020834A506820F4605040EAC1005060D2
:100A2000704729B17E4A527A02437D4B5A7204E0E4
:100A30007B4A527A82437A4B5A7270477B49D8314B
:100A40000860704701460020754A506820F4404015
:100A50000843506070470021714A20321170704A7B
:100A600082F82010012802D004280AD104E00121D4
:100A70006B4A2032117005E00521694A203211705D
:100A800000E000BF00BF70476949086070476449D3
:100A9000096A0143624A1162704765494439086036
:100AA000704730B500210022002400235C4D6D68A2
:100AB00005F00C0121B1042905D0082923D105E056
:100AC0005C4D056022E05B4D05601FE0544D6D6894
:100AD00005F47012524D6D6805F48034022505EB63
:100AE00092421CB9544D554305600BE04C4D6D6866
:100AF00005F400351DB1504D5543056002E04D4DE4
:100B00005543056002E04B4D056000BF00BF444DFA
:100B10006D6805F0F0010909484D6B5C0568DD4022
:100B200045603F4D6D6805F4E061090A434D6B5C1B
:100B30004568DD4085603A4D6D6805F46051C90A2D
:100B40003E4D6B5C4568DD40C560354D6D6805F414
:100B50004041890B3A4D6B5CC568B5FBF3F5056107
:100B600030BD29B12E4A526902432D4B5A6104E02F
:100B70002B4A526982432A4B5A61704729B1284A4D
:100B800092690243264B9A6104E0254A92698243A6
:100B9000234B9A61704729B1214AD2690243204B05
:100BA000DA6104E01E4AD26982431D4BDA61704764
:100BB00029B11B4AD2680243194BDA6004E0184A93
:100BC000D2688243164BDA60704729B1144A126921
:100BD0000243134B1A6104E0114A12698243104B1D
:100BE0001A61704712494039086070470F49C8645C
:100BF00070470B49C87170470948406A40F08070DF
:100C000007494862704701460020054A92680A4039
:100C10000AB1012000E00020704701498872704746
:100C2000001002400000FFF8FFFFF6FE0000424205
:100C30008004424200127A0000093D0014000020A6
:100C40002400002010B50446FE48844208D101214A
:100C5000C014FFF7ADFF0021E014FFF7A9FFC4E0C7
:100C6000B4F1804F08D101210846FFF7AEFF002103
:100C70000120FFF7AAFFB8E0F348844208D1012120
:100C80000220FFF7A2FF00210220FFF79EFFACE049
:100C9000EE48844208D101210420FFF796FF00218D
:100CA0000420FFF792FFA0E0E948844208D1012127
:100CB0000820FFF78AFF00210820FFF786FF94E055
:100CC000E448844208D101211020FFF77EFF002173
:100CD0001020FFF77AFF88E0DF48844208D1012125
:100CE0002020FFF772FF00212020FFF76EFF7CE03D
:100CF000DA48844208D101214014FFF759FF00214E
:100D00006014FFF755FF70E0D548844209D10121F6
:100D1000C804FFF74DFF00214FF40020FFF748FF04
:100D200063E0D048844209D101210805FFF740FF64
:100D300000214FF48010FFF73BFF56E0CA48844281
:100D400009D101214805FFF733FF00214FF40010BE
:100D5000FFF72EFF49E0C548844208D10121402019
:100D6000FFF733FF00214020FFF72FFF3DE0C04891
:100D7000844208D101218020FFF727FF0021802035
:100D8000FFF723FF31E0BB48844208D101218015E1
:100D9000FFF71BFF0021A015FFF717FF25E0B6485E
:100DA000844209D101210804FFF702FF00214FF41A
:100DB0008030FFF7FDFE18E0B048844209D10121E0
:100DC0004804FFF7F5FE00214FF40030FFF7F0FE76
:100DD0000BE0AB48844208D101218804FFF7E8FE0C
:100DE00000214FF48020FFF7E3FE10BD00220288AF
:100DF000944B98420ED0994B98420BD0B0F1804F53
:100E000008D0914B984205D0904B984202D0904B1D
:100E1000984204D14FF68F731A404B881A438D4B7A
:100E2000984207D08C4B984204D04FF6FF431A40AB
:100E3000CB881A4302808B8883850B880385814B7E
:100E400098420BD0854B984208D08B4B984205D0E6
:100E50008A4B984202D08A4B984201D10B7A038682
:100E600001238382704770B5002400220023058C83
:100E70004FF6FE7635400584028C8388048B4FF64E
:100E80008F752C40B51E2C400D882C43751E2A40B2
:100E90000D892A434D882A436A4DA8420BD06F4DD5
:100EA000A84208D0744DA84205D0744DA84202D083
:100EB000734DA84213D14FF6F7752A404D892A4346
:100EC0004FF6FB752A408D882A434FF6FF652B406D
:100ED0004FF6FF552B408D892B43CD892B438380C3
:100EE0000483CD888586028470BD70B500240022FD
:100EF0000023058C4FF6EF7635400584028C8388FD
:100F0000048B48F6FF752C404FF6FF452C400D88AA
:100F10004FF6FF7606EA05252C434FF6DF752A408B
:100F20000D8906EA05152A434D8806EA05152A4368
:100F3000444DA84202D0494DA8421DD14FF67F75BD
:100F40002A404D894FF6FF7606EA05152A434FF6EB
:100F5000BF752A408D8806EA05152A434FF6FF35EE
:100F60002B404FF2FF752B408D8906EA85052B43F8
:100F7000CD8906EA85052B4383800483CD880587C8
:100F8000028470BD70B5002400220023058C4FF64A
:100F9000FF6635400584028C8388848B4FF68F75FD
:100FA0002C404FF6FC752C400D882C434FF6FF5516
:100FB0002A400D894FF6FF7606EA05252A434D881B
:100FC00006EA05252A431F4DA84202D0234DA84218
:100FD0001DD14FF2FF752A404D894FF6FF7606EA84
:100FE00005252A434FF6FF352A408D8806EA052558
:100FF0002A434EF6FF752B404DF6FF752B408D8929
:1010000006EA05152B43CD8906EA05152B43838097
:101010008483CD888587028470BD70B5002200234B
:101020000024058C4EF6FF7635400584038C8488B9
:10103000828B48F6FF752A404FF6FF452A400D88FF
:1010400020E00000002C01400004004000080040A7
:10105000000C00400010004000140040003401402B
:10106000004C014000500140005401400018004075
:10107000001C0040002000400040014000440140AE
:10108000004801404FF6FF7606EA05252A434DF653
:10109000FF752B400D8906EA05352B434D8806EA7E
:1010A00005352B43FA4DA84202D0FA4DA84208D18B
:1010B0004BF6FF752C408D894FF6FF7606EA8515B5
:1010C0002C4384808283CD88A0F84050038470BD77
:1010D000828B4FF2FF331A408283828B4FF6FF736D
:1010E00003EA01231A4382837047F0B50C46154684
:1010F000002200210026078C4EF6FF7C07EA0C0731
:101100000784828B018C4FF6FF7707EA043640F69E
:10111000FF473A404FF6FF7707EA05273A434FF675
:10112000FF7707EA03373A43D94FB8420ED0D94F79
:10113000B8420BD0B0F1804F08D0D74FB84205D09D
:10114000D64FB84202D0D64FB84206D14DF6FF77FF
:10115000394046F48057394305E047F6FF57394098
:1011600044F48057394382830184F0BD828B4FF66B
:10117000F3731A408283828B0A4382837047F0B5EF
:101180000C461546002200210026078C4FF6FF6C06
:1011900007EA0C070784828B018C4FF6FF7707EA7A
:1011A00004264FF60C773A404FF6FF7707EA03170D
:1011B0002F433A43B64FB8420ED0B64FB8420BD089
:1011C000B0F1804F08D0B44FB84205D0B34FB84209
:1011D00002D0B34FB84206D14FF6FF57394046F41C
:1011E0008077394305E04FF2FF57394044F4807768
:1011F000394382830184F0BD028B4FF2FF331A40E2
:101200000283028B4FF6FF7303EA01231A43028322
:101210007047F0B50C461546002200210026078CC9
:101220004FF6EF7C07EA0C070784028B018C4FF620
:10123000FF7707EA041640F6FF473A404FF6FF777C
:1012400007EA03373A434FF6FF7707EA05273A43A1
:101250008F4FB8420ED08F4FB8420BD0B0F1804FB5
:1012600008D08D4FB84205D08C4FB84202D08C4F79
:10127000B84206D14FF6DF77394046F010073943C0
:1012800005E04FF65F77394044F010073943028399
:101290000184F0BD028B4FF6F3731A400283028B78
:1012A0000A4302837047F0B50C4615460022002120
:1012B000068C4FF6FE773E400684028B018C4FF67B
:1012C0000C7632407E1C06EA03162E433243704EE3
:1012D000B0420ED06F4EB0420BD0B0F1804F08D06C
:1012E0006D4EB04205D06D4EB04202D06C4EB04251
:1012F00006D14FF6FD76314044F00106314305E05A
:101300004FF6F576314044F0010631430283018403
:10131000F0BD70B505460C465D4885420ED05D486F
:1013200085420BD0B5F1804F08D05B48854205D08F
:101330005A48854202D05A48854200D100E000BF99
:10134000208850B92389A28861882846FFF7ABFF1F
:10135000E1882846FFF79EFF25E0208804280AD16F
:101360002389A28861882846FFF753FFE188284631
:10137000FFF742FF17E0208808280AD12389A288B6
:1013800061882846FFF7FBFEE1882846FFF7EEFE5E
:1013900009E02389A28861882846FFF7A6FEE18834
:1013A0002846FFF795FE70BD2DE9F04105460C4635
:1013B00000260127608808B9022600E00026A088E0
:1013C000012801D1022700E001272088A0B9238944
:1013D000A28861882846FFF766FFE1882846FFF764
:1013E00059FF23893A4631462846FFF712FFE18824
:1013F0002846FFF701FF13E02389A2886188284669
:10140000FFF707FFE1882846FFF7F6FE23893A46F3
:1014100031462846FFF747FFE1882846FFF73AFFA5
:10142000BDE8F0810A884B881A438B881A43CB8821
:101430001A430B891A434B891A438B891A43A0F824
:10144000442070474FF6FF71818000210180C180E8
:101450004180017270470021018041808180C180FC
:10146000018141818181C1817047002101804180DA
:10147000012181800021C18001817047002101800C
:1014800041808180C180018141818181704700005C
:10149000002C0140003401400004004000080040DE
:1014A000000C004021B1028842F00102028004E0F9
:1014B00002884FF6FE731A400280704731B1B0F8CF
:1014C000442042F40042A0F8442005E0B0F8442053
:1014D000C2F30E02A0F8442070471AB183890B436F
:1014E000838102E083898B438381704781827047C7
:1014F00041EA0203A0F8483070471AB183890B43D0
:10150000838102E083898B438381704701894FF691
:10151000F8721140018170470A46002101894FF697
:101520008F73194011430181704730B504460D4651
:1015300029462046FFF7F0FF208940F00700208170
:1015400030BD2DE9F04104460D4616461F46602D7C
:1015500006D13B46012231462046FFF75AFE05E000
:101560003B46012231462046FFF79DFE2946204694
:10157000FFF7D2FF208940F007002081BDE8F0810D
:1015800030B50C4600210189C9B24FF6FF7505EA56
:101590000325154325432943018130BD2DE9F04141
:1015A00005460E4617469846002443463A463146BD
:1015B0002846FFF7E5FF2C894FF6F870044044F009
:1015C00007044FF68F70044044F070042C81BDE88E
:1015D000F081F0B504460D4616461F463B4632469E
:1015E00029462046FFF7CCFF208940F48040208127
:1015F000F0BD0185828270470A46002101884FF6BE
:101600008F731940114301807047F0B50C461546A1
:101610001E460021002200230189028B038C4FF615
:10162000F877394021434FF6FC473A4040F2011722
:101630003A434FF6DD773B404FF6FF7707EA061750
:101640002F433B43018102830384F0BD0A460021FE
:10165000018B4FF68F7319401143018370470A467F
:101660000021018B48F6FF7319404FF6FF7303EA20
:1016700002231943018370470A460021818B4FF6EC
:101680008F7319401143818370470A460021818B73
:1016900048F6FF7319404FF6FF7303EA022319431C
:1016A0008183704721B1028842F08002028004E009
:1016B00002884FF67F731A400280704721B18288FA
:1016C00042F00402828004E082884FF6FB731A40E5
:1016D0008280704721B1828842F00802828004E053
:1016E00082884FF6F7731A408280704721B1828852
:1016F00042F00102828004E082884FF6FE731A40B5
:10170000828070470A460021018B4FF6F77319401B
:101710001143018370470A460021018B4FF2FF738A
:1017200019404FF6FF7303EA022319430183704700
:101730000A460021818B4FF6F773194011438183CC
:1017400070470A460021818B4FF2FF7319404FF614
:10175000FF7303EA02231943818370470A4600217D
:10176000018B4FF6FB7319401143018370470A4602
:101770000021018B4FF6FF3319404FF6FF7303EA48
:1017800002231943018370470A460021818B4FF6DB
:10179000FB7319401143818370470A460021818BF6
:1017A0004FF6FF3319404FF6FF7303EA0223194344
:1017B000818370470A460021018B4FF67F731940E1
:1017C0001143018370470A460021018BC1F30E01CA
:1017D0004FF6FF7303EA02231943018370470A4659
:1017E0000021818B4FF67F7319401143818370472D
:1017F0000A460021818BC1F30E014FF6FF7303EA05
:1018000002231943818370470A460021018C4FF659
:10181000FD7319401143018470470A460021018C71
:101820004FF6F77319401143018470470A460021AF
:10183000018C4FF6DF7319404FF6FF7303EA021372
:101840001943018470470A460021018C4FF67F73CB
:1018500019404FF6FF7303EA0213194301847047DE
:101860000A460021018C4FF6FF5319404FF6FF73D3
:1018700003EA02231943018470470A460021018CC0
:101880004FF2FF7319404FF6FF7303EA0223194327
:10189000018470470A460021018C4DF6FF73194000
:1018A0004FF6FF7303EA023319430184704730B5E2
:1018B000002301248C40A3B2048C9C430484048C38
:1018C00002FA01F5ADB22C43048430BD30B50023DB
:1018D00004248C40A3B2048C9C430484048C02FA3C
:1018E00001F5ADB22C43048430BD70B50346002031
:1018F00000241846183001258D40ACB21D8CA5433C
:101900001D8409B1082909D100EB6100056825F0A3
:10191000700505600568154305600EE00D1FC5F3F1
:101920004E052844056825F4E045056005684FF636
:10193000FF7606EA02263543056070BD21B10288B4
:1019400042F00202028004E002884FF6FD731A4062
:101950000280704721B1028842F00402028004E054
:1019600002884FF6FB731A400280704721B18288CB
:1019700042F08002828004E082884FF67F731A4032
:101980008280704702884FF6F7731A4002800288FF
:101990000A430280704782884FF68F731A40828014
:1019A00082880A438280704702894FF6F8731A4092
:1019B000028102890A430281704702894FF67F73D0
:1019C0001A40028102890A4302817047818470476C
:1019D000818570478186704701877047818770478E
:1019E000A0F84010704702884FF6FF431A4002806B
:1019F00002880A43028070470146888E704701467C
:101A0000088F70470146888F70470146B1F8400043
:101A100070470146888C70470146088D7047024622
:101A20000020138A0B400BB1012000E0002070471A
:101A3000CA430282704730B50246002000230024CA
:101A4000158A05EA0103958905EA010413B10CB171
:101A5000012000E0002030BDCA4302827047000030
:101A600010B50446FB48844209D101218803FFF7E1
:101A70009FF800214FF48040FFF79AF832E0F648D3
:101A8000844209D101214804FFF79FF800214FF457
:101A90000030FFF79AF825E0F048844209D101218F
:101AA0008804FFF792F800214FF48020FFF78DF8AB
:101AB00018E0EB48844209D10121C804FFF785F8FA
:101AC00000214FF40020FFF780F80BE0E548844246
:101AD00008D101210805FFF778F800214FF48010A4
:101AE000FFF773F810BD2DE9F04786B005460E46A6
:101AF0000024A24600BFA1460027B08900B100BF64
:101B00002F462C8A4CF6FF700440F08804432C8248
:101B1000AC894EF6F3100440B088318908437189CE
:101B200008430443AC81AC8A4FF6FF400440B089BF
:101B30000443AC8201A8FEF7B4FFC648874202D135
:101B4000DDF810A001E0DDF80CA0A88900F4004049
:101B500040B10AEBCA0000EB0A1031684900B0FB43
:101B6000F1F807E00AEBCA0000EB0A1031688900BF
:101B7000B0FBF1F86420B8FBF0F004012009642107
:101B800001FB1089A88900F4004040B1322000EB2D
:101B9000C900B0FBF1F000F00700044308E0322078
:101BA00000EB09106421B0FBF1F000F00F000443DA
:101BB0002C8106B0BDE8F0874FF41651016000217A
:101BC0008180C18001810C21418100218181704788
:101BD00010B502460020108A4FF2FF0318400B8810
:101BE0004C8823438C882343CC882343184310829A
:101BF00010BD0021018041808180C180704721B1EA
:101C0000828942F40052828104E082894DF6FF739A
:101C10001A4082817047F0B5034600240026002553
:101C2000002040F66A17B94200D100BF1846C1F340
:101C3000421401F01F06012707FA06F5012C01D115
:101C40000C3004E0022C01D1103000E014301AB145
:101C500007682F43076002E00768AF430760F0BDE5
:101C60001AB1838A0B43838202E0838A8B43838287
:101C70007047028A4FF6F0731A400282028A0A43C2
:101C80000282704782894FF2FF731A4082818289F3
:101C90000A438281704721B1828942F00202828127
:101CA00004E082894FF6FD731A4082817047028AF0
:101CB0004FF6DF731A400282028A0A43028270479B
:101CC00021B1028A42F48042028204E0028A4BF689
:101CD000FF731A4002827047C1F308028280704786
:101CE00001468888C0F308007047818941F00101EE
:101CF00081817047028BD2B20283028B42EA0122B9
:101D000002837047028B02F47F420283028B0A43F4
:101D10000283704721B1828A42F02002828204E06D
:101D2000828A4FF6DF731A408282704721B1828A1D
:101D300042F01002828204E0828A4FF6EF731A406A
:101D40008282704721B1828A42F00802828204E0D6
:101D5000828A4FF6F7731A408282704721B18289D6
:101D600042F40042828103E08289C2F30E02828142
:101D7000704721B1828A42F40062828204E0828A42
:101D80004FF2FF731A4082827047828A4FF6FB73CC
:101D90001A408282828A0A438282704721B1828AF3
:101DA00042F00202828204E0828A4FF6FD731A40FA
:101DB0008282704702460020B1F5007F00D100BF4B
:101DC00013880B400BB1012000E00020704701F4A4
:101DD0000072B2F5007F00D100BFCA430280704795
:101DE00070B50246002400230025002040F66A1644
:101DF000B14200D100BFC1F3421501F01F0301261B
:101E000006FA03F3012D02D19689334006E0022D34
:101E100002D1168A334001E0968A33400C12012623
:101E200006FA04F41688344013B10CB1012000E026
:101E3000002070BD10B50022002340F66A14A142B4
:101E400000D100BF0A1201249440A3B2DC430480F5
:101E500010BD000000380140004400400048004030
:101E6000004C00400050004010B541F61F410920D1
:101E700001F04CF84FF4165000F0CCF910219048C6
:101E800003F0B6FD02F02AFD10BD00F05AF94FF440
:101E9000A060FEF75BFA00F061FD00F065FF00F066
:101EA0009AFE00F0E6FC00F081FB01F06AF901F017
:101EB000BFF900F07FFF4FF4165000F063FAFFF710
:101EC000D3FF012002F021FD00F070FB002211463B
:101ED000102000F062FC01220021202000F05DFCB7
:101EE00002220021302000F058FC03220021402073
:101EF00000F053FC04220021502000F04EFC05228B
:101F00000021602000F049FC06220221002000F0A0
:101F100044FC07220221102000F03FFC102369A29C
:101F20000221202000F01CFC08220421002000F0E7
:101F300034FC09220421102000F02FFC102361A2A0
:101F40000421202000F00CFC0A220621002000F0D1
:101F500024FC0B220621102000F01FFC102359A2A4
:101F60000621202000F0FCFB0D220621282000F095
:101F700014FC0A220621382000F00FFC1022062152
:101F8000482000F00AFC11220621582000F005FC30
:101F900010234CA20621682000F0E2FB1322062148
:101FA000702000F0FAFB84E04748028847A14848C7
:101FB00004F024F91023464A0221282000F0D0FB27
:101FC00001F00BF943490860084643A10268404804
:101FD00004F014F910233E4A0421282000F0C0FB2D
:101FE0003F48007848B90E220621282000F0D5FB92
:101FF0000F220621382000F0D0FB39480078012854
:1020000009D10D220621282000F0C7FB0A22062153
:10201000382000F0C2FB32480078022809D10C2297
:102020000621282000F0B9FB0A220621382000F002
:10203000B4FB28480068B0F5167F11D90020294963
:1020400008602949C1F8A00112220621702000F081
:10205000A4FB00202249087001202449087020E0D8
:102060002348007828B100201D4908701F490870D6
:1020700017E001201B4908601B49C1F8A00100209E
:102080001A49087013220621702000F086FB0E48C2
:10209000008818B102201249087002E0012010499E
:1020A000087001F0F4F9064802F034FE642000F0F4
:1020B00085F879E710B5012002F027FC10BD00007B
:1020C000320A00203A00000030000020253475005C
:1020D000640500202C0000202538756700000000F2
:1020E00028000020BC0121420000214229000020DC
:1020F00032000020704700BFFEE700BFFEE700BFD0
:10210000FEE700BFFEE770477047704730BF70477B
:1021100072B6704762B6704710B56FF00400FEF7F4
:1021200064F94FF0E020006940F002004FF0E02138
:1021300008610846006940F0010008610920486113
:1021400010BD10B56FF00400FEF74FF92D48006880
:102150002D49B0FBF1F02D4908700846007800EBDE
:102160004001C1EBC0104FF6FF7101EAC0002849E1
:10217000088010BD0146254A12784A434FF0E023FB
:102180005A6100229A611A46126942F001021A61EC
:1021900000BF4FF0E022106900F001021AB100F414
:1021A0008032002AF5D04FF0E022126922F00102BD
:1021B0004FF0E0231A6100229A6170470146144AE9
:1021C00012884A434FF0E0235A6100229A611A466E
:1021D000126942F001021A6100BF4FF0E02210695B
:1021E00000F001021AB100F48032002AF5D04FF05D
:1021F000E022126922F001024FF0E0231A6100226E
:102200009A6170470000002000127A00340000201C
:102210003600002010B586B0044601210420FEF7E8
:10222000ADFC01214804FEF7B6FC5248FFF718FC4C
:102230000420ADF8100003208DF8120018208DF84E
:10224000130004A94C48FEF7DDF90820ADF8100092
:1022500004208DF8130004A94748FEF7D3F9009431
:102260000020ADF80400ADF80600ADF80800ADF8A8
:102270000C000C20ADF80A0069463E48FFF733FC1D
:1022800001213C48FFF7BBFC012240F225513948AF
:10229000FFF7C1FC26208DF8140002208DF81500F0
:1022A00003208DF8160001208DF8170005A8FEF711
:1022B00052F840212F48FFF78AFD06B010BD0FB439
:1022C00038B505A800902D48009A049903F0AAFF9C
:1022D00000200090294803F096FB85B200240DE011
:1022E00000BF40212348FFF765FD0028F9D02348AF
:1022F000015D2048FFF7F0FC601C84B2AC42EFDBCC
:1023000038BC5DF814FB70B504460D4629462046DE
:10231000FFF7E2FC00BF40212046FFF74BFD0028FD
:10232000F9D040212046FFF752FD70BD70B505463B
:102330000C4604E014F8011B2846FFF7E4FF207860
:102340000028F7D170BD08B540F225510948FFF7C4
:1023500047FD68B140F225510648FFF76BFD05487F
:10236000FFF7BEFCC0B200900121684601F03EF9C3
:1023700008BD00000044004000080140DA070020CA
:1023800000BF704710B586B00446012144F2040036
:10239000FEF7F4FB4FF40070ADF8140003208DF845
:1023A000160018208DF8170005A92C48FEF72AF909
:1023B0004FF48060ADF8140004208DF8170005A9D3
:1023C0002648FEF71FF925208DF8000003208DF820
:1023D00001008DF8020001208DF803006846FDF72A
:1023E000BAFF01940020ADF80800ADF80A00ADF87E
:1023F0000C00ADF810000C20ADF80E0001A9184833
:10240000FFF771FB012240F225511548FFF703FC4D
:1024100001211348FFF7F3FB40211148FFF7D7FCD8
:1024200006B010BD10B540F225510D48FFF7D8FC9D
:1024300010BD70B504460D46E1B20948FFF74CFCEB
:1024400000BF40210648FFF7B5FC0028F9D0402125
:102450000348FFF7BCFC204670BD000000080140A7
:102460000038014070B505460C4600F093FA284646
:1024700000F0D2FA00F07FFB002000F0CDFA00F06F
:102480007AFBE0B200F0C8FA00F075FB00F0A6FAA3
:1024900070BD70B505460C4600F07CFA284600F089
:1024A000BBFA00F068FB402000F0B6FA00F063FBD6
:1024B000E0B200F0B1FA00F05EFB00F08FFA70BD00
:1024C00070B504460D4625B121467820FFF7E1FF9F
:1024D00003E021467820FFF7C5FF70BD70B50646C2
:1024E000002418E004F1B0000021FFF7E9FF00210B
:1024F0000846FFF7E5FF00211020FFF7E1FF002568
:1025000005E001213046FFF7DBFF681CC5B2802DD6
:10251000F7DB601CC4B2082CE4DB70BD06E041F6BA
:10252000650100E0491E0029FCD1401E0028F6D1BB
:102530007047014605E0002001E0421CD0B27B2834
:10254000FBDB0A1EA1F10101F5D1704770B504460D
:102550000D4605F1B0000021FFF7B2FF102141EA5E
:1025600014100021FFF7ACFF04F00F000021FFF76B
:10257000A7FF70BD10B500218D20FFF7A1FF00213E
:102580001420FFF79DFF0021AF20FFF799FF10BD3A
:1025900010B500218D20FFF793FF00211020FFF7D9
:1025A0008FFF0021AE20FFF78BFF10BD70B5002418
:1025B00018E004F1B0000021FFF782FF0021084677
:1025C000FFF77EFF00211020FFF77AFF002505E0CE
:1025D00001210020FFF774FF681CC5B2802DF7DBD6
:1025E000601CC4B2082CE4DB70BD70B5002418E098
:1025F00004F1B0000021FFF763FF00210846FFF758
:102600005FFF00211020FFF75BFF002505E001219F
:102610000846FFF755FF681CC5B2802DF7DB601C2C
:10262000C4B2082CE4DB70BD2DE9F04707460E4626
:102630009046994600250024A8F12000C5B27F2FBE
:1026400002DD0027B01CC6B2B9F1100F24D131460B
:102650003846FFF77BFF002408E004EB0511BC4A75
:10266000505C0121FFF72CFF601CC4B2082CF4DB86
:10267000701CC1B23846FFF769FF002409E004EB83
:1026800005110831B24A505C0121FFF719FF601CA7
:10269000C4B2082CF3DB12E031463846FFF756FF90
:1026A00000240AE005EB4501AA4A02EB4101085D5E
:1026B0000121FFF705FF601CC4B2062CF2DBBDE868
:1026C000F08710B50246012000E050430B1EA1F137
:1026D0000104E1B2F9D110BD2DE9FF5F0746914633
:1026E0001E460E9D4FF0000A002435E0301B401EB0
:1026F000C1B20A20FFF7E5FFB9FBF0F00A21B0FBF9
:10270000F1F201FB1208BAF1000F14D1701EA042C1
:1027100011DDB8F1000F0CD1AB4605EBDB714910B0
:1027200001FB0471C8B22B4620220199FFF77CFF00
:1027300010E04FF0010AAB4605EBDB71491001FBDD
:102740000471C8B208F13001CAB22B460199FFF7F3
:102750006BFF00BF601CC4B2B442C7DBBDE8FF9F83
:102760002DE9F04104460F461546984600260FE035
:10277000AA5D434639462046FFF756FF04F108009C
:10278000C4B2782C02DD0024B81CC7B2701CC6B2DB
:10279000A85D0028ECD1BDE8F0812DE9F04180462C
:1027A0000E461546002731464046FFF7CFFE00246F
:1027B0000AE0694A02EB8511085D0121FFF780FEFE
:1027C000781CC7B2601CC4B2102CF2DB701CC1B202
:1027D0004046FFF7BBFE00240CE06900491C5E4A3E
:1027E00002EB4111085D0121FFF76AFE781CC7B2B8
:1027F000601CC4B2102CF0DBBDE8F0812DE9F05F65
:1028000006460F4690461C46DDF828A04FF0000B08
:10281000E11704EB5171C910A4EBC10131B9204695
:10282000E11704EB5171C1F3C70506E02046E1173B
:1028300004EB5171C910491CCDB23D4615E0294643
:102840003046FFF783FEB1460BE059460BF1010B12
:102850001AF801000121FFF733FE09F1010000F031
:10286000FF09C145F1DB681CC5B2A542E7DBBDE845
:10287000F09F10B50021AE20FFF722FE0021084690
:10288000FFF71EFE00211020FFF71AFE0021402056
:10289000FFF716FE0021B020FFF712FE0021812075
:1028A000FFF70EFE0021FF20FFF70AFE0021A12006
:1028B000FFF706FE0021A620FFF702FE0021A82058
:1028C000FFF7FEFD00213F20FFF7FAFD0021C820A1
:1028D000FFF7F6FD0021D320FFF7F2FD00210846A7
:1028E000FFF7EEFD0021D520FFF7EAFD0021802053
:1028F000FFF7E6FD0021D820FFF7E2FD00210520CB
:10290000FFF7DEFD0021D920FFF7DAFD0021F120DD
:10291000FFF7D6FD0021DA20FFF7D2FD00211220BB
:10292000FFF7CEFD0021DB20FFF7CAFD002130209C
:10293000FFF7C6FD00218D20FFF7C2FD0021142006
:10294000FFF7BEFD0021AF20FFF7BAFD10BD00006C
:10295000847100085C6F00084300002008B5012165
:102960000420FEF70BF94FF48070ADF80000102042
:102970008DF8030003208DF8020069460448FDF736
:1029800041FE4FF480710248FDF7E9FE08BD0000EA
:102990000008014010B5E848006820F47040E6499E
:1029A00008600846006840F440500860C914E248D6
:1029B000001FFDF7D4FE4FF48061DF48001FFDF7D4
:1029C000CEFE4FF40061DC48001FFDF7CAFE4FF455
:1029D0008061D948001FFDF7C4FE10BD10B5D64870
:1029E000006820F47040D44908600846006840F44C
:1029F00040500860C914D048001FFDF7B2FE4FF4E4
:102A00008061CD48001FFDF7AAFE4FF40061CA485F
:102A1000001FFDF7A4FE10BD70B50446C64800684F
:102A200020F47040C44908600846006840F44050F3
:102A30000860002527E004F0800030B14FF4006109
:102A4000BD48001FFDF78BFE05E04FF40061BA485A
:102A5000001FFDF786FE4FF48061B748001FFDF7A9
:102A60007EFE4FF48061B448001FFDF77AFE072D0B
:102A700005D14FF40061B048001FFDF770FE6006FD
:102A8000040E681CC5B2082DD5DB70BD10B5AA4870
:102A9000006820F47040A84908600846006840F4C7
:102AA00040500860C914A448001FFDF75AFE4FF4B7
:102AB0008061A148001FFDF752FE4FF480619E48DF
:102AC000001FFDF74EFE4FF400619B48001FFDF70D
:102AD00046FE10BD10B59848006820F47040964935
:102AE00008600846006840F440500860C9149248E5
:102AF000001FFDF734FE4FF480618F48001FFDF783
:102B00002EFE4FF480618C48001FFDF72AFE10BD99
:102B100070B505468848006820F470408649086012
:102B20000846006840F4004008600024002618E0D1
:102B30006006040E4FF480617F48001FFDF70FFE12
:102B40004FF400617C48001FFDF7EFFD08B1601CE9
:102B5000C4B24FF480617848001FFDF702FE701C7C
:102B6000C6B2082EE4DB15B9FFF7B4FF01E0FFF7AA
:102B70008DFF204670BD10B56F48006820F470408E
:102B80006D4908600846006840F400400860C914B8
:102B90006948001FFDF7E3FD4FF480616648001FA0
:102BA000FDF7DDFD07E0601CC4B2FA2C03DDFFF782
:102BB00015FF012010BD4FF400615F48001FFDF7B5
:102BC000B4FD0028EFD14FF480615B48001FFDF792
:102BD000C8FD0020EEE708B501210820FDF7CEFF73
:102BE0004FF44060ADF8000003208DF8020014207F
:102BF0008DF8030069465048001FFDF703FDFFF7FD
:102C0000EDFE08BD70B50446FFF7E5FFFFF7C2FE15
:102C10002046FFF701FFFFF7AEFF0546FFF7DEFE98
:102C2000284670BD70B504460D460026FFF7B2FE7B
:102C30002046FFF7F1FEFFF79EFF2846FFF7ECFE68
:102C4000FFF799FFFFF7A6FE44F00100FFF7E4FE4F
:102C5000FFF791FF0020FFF75BFF0646FFF7BEFE80
:102C6000304670BD2DE9F0410746884615461E46A0
:102C70000024FFF78FFE3846FFF7CEFEFFF77BFFFD
:102C80004046FFF7C9FEFFF776FFFFF783FE47F0E8
:102C90000100FFF7C1FEFFF76EFF00BF0CE0681EEA
:102CA000A04204D10020FFF733FF305503E001209C
:102CB000FFF72EFF3055641CAC42F0DBFFF78EFEB1
:102CC000BDE8F08170B506460C461546FFF762FE7A
:102CD0003046FFF7A1FEFFF74EFF2046FFF79CFEB0
:102CE000FFF749FF2846FFF797FEFFF744FFFFF77E
:102CF00075FE70BD2DE9F04180460D4616461F4613
:102D00000024FFF747FE4046FFF786FEFFF733FF3C
:102D10002846FFF781FEFFF72EFF00BF05E0385D74
:102D2000FFF77AFEFFF727FF641CB442F7DBFFF7DB
:102D300055FEBDE8F0810000040C014008B50121FA
:102D40000820FDF71BFF03208DF80200C020ADF81E
:102D5000000048208DF8030069460248FDF752FC48
:102D600008BD0000000C014008B501210420FDF75A
:102D700005FF01210846FDF701FF01210B48FDF782
:102D800012FD4FF40040ADF8000010208DF8030054
:102D900003208DF8020069460548FDF733FC4FF427
:102DA00000410348FDF7DBFC08BD000000023000D5
:102DB0000008014008B501210820FDF7DFFE4FF4AF
:102DC0007040ADF8000010208DF8030003208DF84E
:102DD000020069464A48FDF715FC4FF47041484827
:102DE000FDF7BFFC08BD08287AD2DFE800F0041226
:102DF000202F3E4D5B690121424A11600021424A69
:102E0000C2F8B8113F4A083A11603F4AC2F8B011FF
:102E100073E001213B4A11603B4AC2F8B81100211E
:102E2000384A083A1160384AC2F8B01165E000210A
:102E3000344A11600121344AC2F8B8110021314AE4
:102E4000083A1160304AC2F8B01156E000212D4A0C
:102E5000116001212C4AC2F8B8112A4A083A1160BF
:102E60000021294AC2F8B01147E00021254A11602B
:102E7000254AC2F8B8110121224A083A11600021FE
:102E8000214AC2F8B01138E000211E4A11601E4AE2
:102E9000C2F8B81101211B4A083A11601A4AC2F857
:102EA000B0112AE00021174A1160174AC2F8B81180
:102EB000144A083A11600121134AC2F8B0111CE00B
:102EC0000121104A116000210F4AC2F8B8110D4AC1
:102ED000083A116001210C4AC2F8B0110DE0FFE779
:102EE0000021084A1160084AC2F8B811054A083A98
:102EF0001160054AC2F8B01100BF00BF7047000062
:102F0000000C0140BC812142008021427FB5054672
:102F10000C4601210220FDF73EFEADF80850ADF849
:102F200004400020ADF80A00ADF8060001A93148C0
:102F3000FDF75CFF012211462E48FEF7CEFA1D2058
:102F40008DF8000000208DF8010003208DF80200AC
:102F500001208DF803006846FDF7FDF901212548A1
:102F6000FEF7A0FA7FBD10B501212248FEF763FDF0
:102F700000283ED001211F48FEF76EFD00F098FAB0
:102F80001D48007810B90820FFF72DFF1A48007877
:102F900001281BD119480078032812D100201749B5
:102FA000087017480078082802D1002014490870DA
:102FB000134908780978491C114B1970FFF713FF62
:102FC00004E00E480078401C0C4908700A4800785C
:102FD00002280ED10A480078082802D100200849AA
:102FE0000870074908780978491C054B1970FFF7E4
:102FF000FAFE10BD00040040280000204405002017
:103000004305002008B501210820FDF7B7FD4FF466
:103010004070ADF8000048208DF8030003208DF8C3
:10302000020069460148FDF7EDFA08BD000C0140B9
:1030300010B50446224601217948FDF794FB10BDE6
:1030400008B501210420FDF799FD04208DF8030047
:103050000220ADF8000003208DF802006946704898
:10306000FDF7D0FA02216E48FDF75FFB08BD38B5C9
:10307000044601210420FDF781FD10208DF8030096
:103080000220ADF8000003208DF802006946644874
:10309000FDF7B8FA224602216148FDF764FB38BD0E
:1030A00070B500240120FFF7E2FF0020FFF7C0FF0A
:1030B0000120FFF75FF8FFF7C3FF00BFFFF7C0FF76
:1030C0000028FBD10120FFF755F8002512E0012070
:1030D000FFF7AEFF64000120FFF74CF80020FFF778
:1030E000A7FFFFF7ADFF00B1641C0120FFF742F816
:1030F000681CC5B2182DEADB0120FFF799FF84F4A4
:1031000000040120FFF736F80020FFF791FF0120AF
:10311000FFF730F8204670BD2DE9F04786B005274F
:103120004FF0030A0026002424E0FFF7B9FF05460C
:1031300016B90195012615E000240CE001A850F80D
:103140002400A84205D9A94601A850F8245040F807
:103150002490601CC4B2B442F0DB01A840F82650B1
:10316000701CC6B2BE4203DB01A850F82A500026EC
:10317000601CC4B2BC42D8DBA846404606B0BDE8DD
:10318000F08708B501210420FDF7F8FC10208DF828
:1031900003000120ADF8000003208DF8020069460D
:1031A0001F48FDF72FFA04208DF803000220ADF828
:1031B000000003208DF8020069461948FDF722FA45
:1031C000FFF7AAFF1749086008BD10B50120FFF7F7
:1031D0002FFF3C20FEF7CEFF10BD2DE9F041FFF799
:1031E0005FFF05460F480068854214D90D490968FC
:1031F000681A02F0D7FC07460B480168384602F00F
:1032000093FC064602F0D3FC04460848844200D8EA
:1032100002E0002400E000242046BDE8F081000028
:10322000000801404C05002048050020A086010050
:103230000EB5FFF783FDFFF7E5FE01210846FDF718
:103240009DFC06210120FDF7F3FA402001900020AB
:103250008DF808000C208DF8090001A8FDF7F2F8A0
:1032600007210120FDF7E4FA8020019000208DF86D
:1032700008000C208DF8090001A8FDF7E3F80821EB
:103280000120FDF7D5FA4FF48070019000208DF8F1
:1032900008000C208DF8090001A8FDF7D3F80921DA
:1032A0000120FDF7C5FA4FF40070019000208DF861
:1032B00008000C208DF8090001A8FDF7C3F81720BD
:1032C0008DF8000002208DF8010001208DF8020029
:1032D0008DF803006846FDF73EF80EBD10B50520D9
:1032E000FEF76CFF40212B48FDF71FFA20B180212B
:1032F0002848FDF71AFAA8B927480078C04326499C
:1033000008700846007818B100202449087009E0C8
:103310002348008818B102202049087002E00120EB
:103320001E4908704FF480711A48FDF7FEF938B94C
:103330001B480088401C1A49088002201749087061
:103340004FF400711348FDF7F0F998B9144800885C
:10335000401E13490880084600884FF6FF718842D6
:1033600002D00F48008828B900200D4908800120AC
:103370000A4908704020FDF7DCF88020FDF7D9F8F5
:103380004FF48070FDF7D5F84FF40070FDF7D1F8D9
:1033900010BD0000000C0140320000202800002079
:1033A000300000202DE9FF5F06460D4693464FF0A2
:1033B00000082F46A9462C46AA4606B125B94FF06B
:1033C000FF3004B0BDE8F09F4FF000085AE0701CD9
:1033D00010F8080012284FD2DFE800F02223244E14
:1033E0004E252627284E4E4E4E2933422F09386847
:1033F0004F490860084601684EA002F0EFFE4C48B5
:10340000006810B1012808D103E00120504908707C
:1034100004E000204E49087000E000BF00BF2CE02F
:103420002BE02AE029E028E027E026E025E099F8D3
:10343000001048A002F0D2FE1FE049A002F0CEFE2C
:103440001BE0A17962792379A068CDE90032CDE94A
:103450000210E378A278218846A002F0BFFE0CE0BB
:103460004FA002F0BBFE53A002F0B8FE9AF8001085
:1034700054A002F0B3FE00E000BF00BF08F101005D
:1034800000F0FF0830784045A1DC002099E7524861
:103490000078274948605148007888605048008883
:1034A000C860704710B51021214802F0A1FA10BD84
:1034B0004C480068401C4B49086070474948006808
:1034C0007047704700B5FFF7F3FF00BD08B5002057
:1034D00000900121684600F089F808BD70B50546E6
:1034E0000E4600240DB9601E70BD00241BE0295D4E
:1034F0003D48FEF7F1FB00BF80213B48FEF75AFC38
:103500000028F9D0022C0DD3285DFF280AD15521BF
:103510003548FEF7E1FB00BF80213348FEF74AFC47
:103520000028F9D0641CB442E1D33046DCE7000047
:10353000320A00204576743A204556454E545F7352
:10354000746F705F73746172742025640A000000E8
:1035500032000020525353492025640A0000000025
:103560005452414E53504152454E545F4441544190
:10357000200A0000574946495F4E5450203A205BCC
:1035800025642D25642D256420253032643A2530AC
:1035900032643A253032645D5B25645D200A0000A8
:1035A0004D4F44554C4520494E464F202E2E2E0A55
:1035B00000000000574946204D4F44554C45202EF1
:1035C0002E2E0A006D6F64756C6554797065203A13
:1035D000205B25645D200A002800002029000020CF
:1035E00030000020500500200044004070B5044623
:1035F0000D46002624B9EFA002F0F0FD701E70BD4C
:103600002A462146F34802F087F90646AE4205D025
:10361000F1A002F0E3FD4FF0FF30F0E73046EEE7B7
:1036200010B504462CB9F3A002F0D8FD4FF0FF30DE
:1036300010BD002020606060FF20207060700020BE
:10364000F6E770B504460D462CB9F5A002F0C6FDAC
:103650004FF0FF3070BD3F21F74802F0C9F92A460C
:103660002146F548801C02F0AAF9F3487C38A0F8FE
:10367000B550012180F87D10FFF720FFEE497C391D
:10368000C1F8B7000020E5E7F8B505460C46164638
:103690000DB104B12EB9E9A002F0A0FD4FF0FF304A
:1036A000F8BD287800F0010078B111212278601C63
:1036B00081542078401C207001206B1C02460021A0
:1036C0000090084601F0EDFF30600020E8E72DE9AA
:1036D000F04104460D460026002704B135B9E2A0AA
:1036E00002F07CFD4FF0FF30BDE8F081FFF7E6FE11
:1036F000074628682168884203D0E5A002F06EFDE5
:10370000012668686168884203D0E8A002F066FD7F
:103710000126A868A168884203D0EBA002F05EFDF4
:103720000126E868E16888420AD0EC480068381A47
:1037300041F27071884203D3E9A002F04FFD0126E7
:10374000012E03D1FFF7BAFEE44908603046CBE70B
:10375000F8B504460D4604B12DB9E8A002F03EFDCF
:103760004FF0FF30F8BD00202870687020680228F4
:1037700005D3EEA002F032FD4FF0FF30F2E72068F3
:103780002B46012200210090084601F0EBFF606803
:10379000032805D3F2A002F021FD4FF0FF30E1E74E
:1037A00060682B46022200210090012001F0DAFF20
:1037B000A068022805D3F7A002F010FD4FF0FF30FB
:1037C000D0E7A0682B46012202210090104601F0AC
:1037D000C9FF0121284601F05FFE0121681C01F0AC
:1037E0005BFEE2680021012001F06FFE86B23046E8
:1037F00001F099FC68800020B4E72DE9F04780468D
:103800000C4617461D46089E94F800900CB105B171
:1038100036B9ECA002F0E2FC4FF0FF30BDE8F087D3
:10382000B8F1000F54D1132183483F3002F0E0F883
:10383000B9F1010F06D0B9F1020F12D0B9F1050F9D
:1038400044D124E07C4A8F32A2F15001601CFFF782
:103850001BFF012078497C3908700025002030606A
:1038600035E075498B3101F11400FFF771FF50B954
:1038700071487C38D0F80701C5F801000320287092
:103880000520306002E04FF0FF30C7E71FE07A1EEE
:10389000611C6948443802F092F8781E66497C3908
:1038A0000867102164487C3890F8BB20BC308154F4
:1038B000BC3890F8BB00401C5F497C3981F8BB00E4
:1038C0000320087000250020306000E000BF00BF2A
:1038D0000020A3E72DE9F04F9DB006468B46174622
:1038E000994600201C908246804600256C46BBF11C
:1038F000000F06D1BFA002F071FC681E1DB0BDE82C
:10390000F08FB9F1010F06D196F8088008F1060092
:10391000384485B201E0781D85B22B4642463946CF
:10392000BAA002F05BFCFF2004F8010B04F8010BC5
:10393000281204F8010B04F8015B3079401C04F8EC
:10394000010B707904F8010B002004F8010B04F856
:10395000019B4FF0080AB9F1010F0CD104F8018B5B
:103960000AF1010A0DEB0A00424606F1090102F0D4
:1039700026F8C24444442FB10DEB0A003A4659469A
:1039800002F01DF8291D684601F0BAFB0146E81C4B
:103990000DF80010291D6846FFF7A0FD1C901C982B
:1039A000002806DAA3A01C9902F018FC6FF00100B1
:1039B000A4E74BE14552523A2067697A5075744446
:1039C0006174612062756620697320656D70747919
:1039D000200A0000C00B00204552523A204661697F
:1039E0006C656420746F2072625772697465200A76
:1039F000000000004552523A2067697A50726F7495
:103A00006F636F6C48656164496E697420686561B5
:103A10006420697320656D707479200A00000000CD
:103A20004552523A206461746120697320656D705B
:103A30007479200A00000000C00A002067697A44F7
:103A4000617461506F696E74324576656E7420459D
:103A500072726F72202C20496C6C6567616C20500B
:103A60006172616D0A00000067697A436865636B83
:103A70005265706F7274204572726F72202C2049EB
:103A80006C6C6567616C20506172616D0A000000AA
:103A900076616C756573746F705F73746172742096
:103AA0004368616E6765640A0000000076616C75AA
:103AB000656D6F746F725F737461747573204368A2
:103AC000616E6765640A000076616C756566617594
:103AD0006C74204368616E6765640A0054050020B9
:103AE00076616C756570656F706C655F73756D2060
:103AF0004368616E6765640A0000000067697A4484
:103B0000617461506F696E7473325265706F727454
:103B100044617461204572726F72202C20496C6C74
:103B20006567616C20506172616D0A005B4552529D
:103B30004F525D2076616C756573746F705F73743E
:103B4000617274204572726F72202C20496C6C6512
:103B500067616C204F766572737465700A000000AF
:103B60005B4552524F525D2076616C75656D6F7486
:103B70006F725F737461747573204572726F722017
:103B80002C20496C6C6567616C204F76657273748C
:103B900065700A005B4552524F525D2076616C752C
:103BA000656661756C74204572726F72202C2049B5
:103BB0006C6C6567616C204F766572737465700A12
:103BC0000000000067697A50726F746F636F6C4910
:103BD000737375656450726F636573732045727299
:103BE0006F72202C20496C6C6567616C205061728B
:103BF000616D0A005B4552525D2020646174612052
:103C00004973204E756C6C200A0000006C656E20B4
:103C10003D202564202C20734469644C656E203D52
:103C2000202564202C646174615F6C656E203D20EA
:103C300025640A0075617274207772697465206565
:103C400072726F72202564200A000000002055E681
:103C50002DE9FF4105460E461746002436B9FBA064
:103C600002F0BCFA601E04B0BDE8F0816846FFF7C0
:103C7000D7FC05208DF80400FE4890F87410406FC2
:103C8000401CFC4A5067C8B28DF805008DF80850FA
:103C90000A2001F048FAADF802003A4631460DF12B
:103CA000090001F08CFE0E21684601F029FA8DF81A
:103CB0000D000E216846FFF711FC0446002C06DAC1
:103CC0002146EDA002F08AFA6FF00100CBE70E2149
:103CD0006846FFF7B6FC2046C5E770B50546FFF716
:103CE000EDFB0446EB492846FFF7F1FC012813D110
:103CF000E9A002F073FAE74914392846FFF728FDD6
:103D000028B90422E34914391046FFF7A1FF102215
:103D10002946E04801F053FEE548B4FBF0F100FB12
:103D20001140C8B9E3480068A04215D0E2A002F0F3
:103D300055FAD84914392846FFF70AFD28B9042254
:103D4000D44914391046FFF783FF10222946D14881
:103D500001F035FED748046070BD2DE9FE4F804666
:103D60000E4617464FF0000B002002908146824617
:103D7000002534460090B8F1000F01D006B137B9E4
:103D8000D3A002F02BFA4FF0FF30BDE8FE8F404683
:103D900001F046FD1FFA80FABAF1000F02D14FF090
:103DA000FF30F2E74FF0000969E0012201A9404627
:103DB00001F061FD8346BBF1000F5ED0D048007872
:103DC000FF281FD19DF80400FF281BD1CD480078A3
:103DD00048B9FF20207060700220CB490880012084
:103DE000C849087040E0C848008804283CDDC6483F
:103DF0000088A84238D0FF20207060700220C2499D
:103E0000088031E0BE480078FF2803D19DF8040007
:103E1000552829D0BB480078012825D19DF80400F9
:103E2000B94909886054B8480088401CB6490880E0
:103E300008460088042817DD0094009C608801F083
:103E400072F9001D85B2372D01D2042D07DC002048
:103E5000AC490870AC490880ACA002F0BFF9AA4890
:103E60000088A84200D10CE09DF80400A449087025
:103E7000B6480078401CB549087009F10109D145E0
:103E800093DB00BFA0480088042822DD9E480088FC
:103E9000A8421ED19C480188204601F031F90290C9
:103EA00099480088401E215C029881420AD13D80D9
:103EB00000209449087094490880A44908709049EA
:103EC000087062E700208F4908708F490880801EC3
:103ED0005BE7012059E710B50024664890F87D00A3
:103EE00000B910BD9AA002F079F96248B0F8B51097
:103EF0007E30FFF7F3FA04465E48B0F8B500A04202
:103F000002D09BA002F06AF9FFF7D8FA5949C1F82C
:103F1000B70000BFE5E770B50446564D7E3534B9AD
:103F2000AFF2045002F05AF94FF0FF3070BD28791B
:103F3000401C2179884204D13F214E487C3001F059
:103F400057FD0020F2E73EB50446002524B98EA0B7
:103F500002F044F9681E3EBD206800906068019040
:103F60009DF80400401CC0B28DF80400052001F04B
:103F7000DAF8ADF802000921684601F0C1F88DF8C1
:103F8000080009216846FFF7A9FA0546002D03DA63
:103F9000294639A002F022F92846DCE710B5354859
:103FA00090F87D00012827D1324890F87C00022843
:103FB0001DDAFFF783FA2F49D1F8B710401AC82845
:103FC0001AD9FFF77BFA04462A4890F87C30D0F8DB
:103FD000B720214677A002F001F9FFF77CFF2548C2
:103FE00090F87C00401C234981F87C0004E03F21CC
:103FF00020487C3001F0FCFC10BD30B59DB004467B
:1040000000252CB975A002F0E9F8681E1DB030BD7E
:104010006846FFF705FB02208DF8040060798DF8F3
:1040200005007AA103C9CDE902017BA103C9CDE94D
:1040300004017CA103C9CDE908017DA103C9CDE933
:10404000060120227DA10AA80AE1000067697A52D0
:1040500065706F727444617461204572726F722072
:104060002C20496C6C6567616C20506172616D0A2F
:1040700000000000440A00204552523A2075617247
:1040800074207772697465206572726F722025647E
:10409000200A00005F0B00206368616E6765642C76
:1040A000207265706F727420646174610A00000090
:1040B000C027090058050020496E666F3A20363047
:1040C0003053207265706F727420646174610A00ED
:1040D00067697A50726F746F636F6C4765744F6E67
:1040E000655061636B6574204572726F72202C207D
:1040F000496C6C6567616C20506172616D0A0000EB
:10410000600500205C0500205E0500204552523A03
:104110007468652064617461206C656E67746820E2
:10412000697320746F6F206C6F6E67206F722074DC
:104130006F6F20736D616C6C2C2077696C6C2061E3
:1041400062616E646F6E200A00000000610500204D
:104150005761726E696E673A2074696D656F757428
:104160002C20726573656E642064617461200A009E
:104170004552523A20726573656E642064617461C1
:10418000206572726F720A004552523A2067697A4E
:1041900050726F746F636F6C436F6D6D6F6E4163C0
:1041A0006B206461746120697320656D707479207F
:1041B0000A0000005761726E696E673A67697A504B
:1041C000726F746F636F6C526573656E6444617473
:1041D000612025642025642025640A0067697A50DF
:1041E000726F746F636F6C4765744465766963655D
:1041F000496E666F204572726F72202C20496C6C7C
:104200006567616C20506172616D0A00303030303A
:104210003030303400000000303030303030303258
:104220000000000030333033303030300000000008
:1042300030333031303130300000000032306364D0
:10424000323661363531336334396433616231611A
:1042500031343033666666613639656600000000C9
:1042600001F0ADFB2022FEA10DF1520001F0A7FBF1
:104270000020CDF84A00CDF84E009DF851008DF891
:1042800051009DF8510040F002018DF851100020BE
:1042900000F049FFADF848006F2000F044FFADF892
:1042A00002007321684600F02BFF8DF87200732125
:1042B0006846FFF713F90546002D04DA2946AFF2E8
:1042C000482001F08BFF2846A0E6FEB504460E46C6
:1042D000002524B9EBA001F081FF681EFEBD6846F1
:1042E000FFF79EF912208DF8040060798DF8050023
:1042F000062000F018FFADF802008DF808600A21D2
:10430000684600F0FDFE8DF809000A216846FFF7B7
:10431000E5F80546002D04DA2946AFF2A42001F0A5
:104320005DFF2846DAE770B5044625462CB9E0A0C3
:1043300001F054FF4FF0FF3070BDE248A968C16240
:10434000A9890186A97B80F83210A0F58070D5F884
:104350000F10C0F834110146B1F82C0100F0E3FE53
:10436000D949A1F82C01D1F8340100F0E9FED64971
:10437000C1F834010E21D44890F8E120E230815494
:10438000E23890F8E100401CCF4981F8E1000420B8
:1043900008700020D0E710B5FFF790F8044600BF82
:1043A000FFF78CF8001BB0F5167FF9D9FFF789F8F5
:1043B00010BD10B504462CB9C4A001F00FFF4FF09A
:1043C000FF3010BD208900F0AEFE2081CB48007880
:1043D000C0F38000217AC1F38001884256D0207A50
:1043E000C0F38000002829D0207A00F0010078B1C5
:1043F0000021B54890F8CE20CF308154CF3890F8C6
:10440000CE00401CB04981F8CE00BDA001F0E6FE10
:10441000207AC0F34000002838D00121AA4890F843
:10442000CE20CF308154CF3890F8CE00401CA64922
:1044300081F8CE00BAA001F0D1FE27E0207A00F08A
:10444000010078B10021A04890F8CE20CF308154EF
:10445000CF3890F8CE00401C9B4981F8CE00A8A030
:1044600001F0BCFE207AC0F3400078B102219648EA
:1044700090F8CE20CF308154CF3890F8CE00401C39
:10448000914981F8CE00ADA001F0A8FE9B480078CC
:10449000C0F3C000217AC1F3C00188422CD0207A39
:1044A000C1089648007861F3C30094490870207AE7
:1044B000C0F3C00080B10321834890F8CE20CF30F4
:1044C0008154CF3890F8CE00401C7F4981F8CE004F
:1044D000A1A001F083FE0FE004217B4890F8CE20DC
:1044E000CF308154CF3890F8CE00401C764981F807
:1044F000CE00A1A001F072FE80480078C0F3001049
:10450000217AC1F3001188422CD0207A01097B481E
:10451000007861F3041079490870207AC0F3001024
:1045200080B10521684890F8CE20CF308154CF3833
:1045300090F8CE00401C644981F8CE0096A001F0AE
:104540004DFE0FE00621604890F8CE20CF30815418
:10455000CF3890F8CE00401C5B4981F8CE0096A081
:1045600001F03CFE65480078C0F34010217AC1F3A9
:10457000401188422CD0207A41096048007861F3CC
:1045800045105E490870207AC0F3401080B10721C1
:104590004D4890F8CE20CF308154CF3890F8CE00DF
:1045A000401C494981F8CE008CA001F017FE0FE0B5
:1045B0000821454890F8CE20CF308154CF3890F86C
:1045C000CE00401C404981F8CE008BA001F006FED1
:1045D0004A484078C0F3C001607AC0F3C00081420D
:1045E0002CD0607AC1084548407861F3C300434944
:1045F0004870607AC0F3C00080B10B21324890F857
:10460000CE20CF308154CF3890F8CE00401C2E49B8
:1046100081F8CE0080A001F0E1FD0FE00C212A48D6
:1046200090F8CE20CF308154CF3890F8CE00401C87
:10463000254981F8CE007FA001F0D0FD2F484078B9
:10464000C0F30011607AC0F30010814206D0607A96
:1046500001092A48407861F30410FBE021E10000E1
:1046600030636432653434636133393934633834E8
:104670006264343062333265643332613230646292
:104680000000000067697A50726F746F636F6C4549
:1046900072726F72436D64204572726F72202C20AB
:1046A000496C6C6567616C20506172616D0A000035
:1046B0004552523A204E545020697320656D7074F3
:1046C00079200A00440B0020440A002067697A50D0
:1046D000726F746F636F6C4D6F64756C655374614A
:1046E000747573204572726F72202C20496C6C6552
:1046F00067616C20506172616D0A000062050020E4
:104700004F6E426F617264696E673A20536F6674D0
:104710004150206F7220576562206D6F64650A00FA
:104720004F6E426F617264696E673A204169724CE4
:10473000696E6B206D6F64650A0000004F6E426FFA
:10474000617264696E673A2053746174696F6E2098
:104750006D6F64650A0000005769466920737461D3
:104760007475733A20696E2062696E64696E6720A1
:104770006D6F64650A0000005769466920737461B3
:104780007475733A206F75742062696E64696E6720
:10479000206D6F64650A0000576946692073746173
:1047A0007475733A20636F6E6E656374656420720E
:1047B0006F757465720A00005769466920737461E9
:1047C0007475733A20646973636F6E6E65637465A4
:1047D0006420726F757465720A000000576946693B
:1047E000207374617475733A20636F6E6E656374C1
:1047F0006564206D326D0A005769466920737461E3
:104800007475733A20646973636F6E6E6563746563
:1048100064206D326D0A0000576946692073746127
:104820007475733A2061707020636F6E6E65637487
:104830000A00000057694669207374617475733A01
:10484000206E6F2061707020636F6E6E6563740AF6
:1048500000000000FC494870607AC0F3001080B18D
:104860000921FA4890F8CE20CF308154CF3890F803
:10487000CE00401CF54981F8CE00F5A001F0AEFC59
:104880000FE00A21F14890F8CE20CF308154CF3884
:1048900090F8CE00401CED4981F8CE00F3A001F065
:1048A0009DFC0D21E94890F8CE20CF308154CF38BF
:1048B00090F8CE00401CE54981F8CE00607A00F007
:1048C000070081F82B01084690F82B11EEA001F0AB
:1048D00085FC0220DD490870002072E510B56E20CD
:1048E000ED490860ED48C860084600F07BFF18B944
:1048F000EBA001F073FC02E0EEA001F06FFC4FF4BE
:10490000BE71D24801F074F810BD30B587B00546CD
:104910000024062D7ED2DFE805F0032F5D8DB9E57A
:1049200001A8FEF77DFE0B208DF80800C74890F81F
:104930007410406F401CC54A5067C8B28DF809001A
:10494000052000F0F0FBADF80600092101A800F0F9
:10495000D7FB8DF80C00092101A8FEF7BFFD044626
:10496000002C04DA2146AFF6F00001F037FC0921F3
:1049700001A8FEF766FEE5E004A8FEF751FE092057
:104980008DF81400B14890F87410406F401CAF4A85
:104990005067C8B28DF815008DF81850062000F049
:1049A000C2FBADF812000A2104A800F0A9FB8DF8A3
:1049B00019000A2104A8FEF791FD0446002C04DA30
:1049C0002146AFF64C1001F009FC0A2104A8FEF7BD
:1049D00038FEB7E004A8FEF723FE09208DF8140086
:1049E0009A4890F87410406F401C984A5067C8B2BB
:1049F0008DF815008DF81850062000F094FBADF8E6
:104A000012000A2104A800F07BFB8DF819000A218E
:104A100004A800E092E0FEF761FD0446002C04DAF1
:104A20002146AFF6AC1001F0D9FB0A2104A8FEF72D
:104A300008FE87E001A8FEF7F3FD13208DF80800BB
:104A4000824890F87410406F401C804A5067C8B28A
:104A50008DF80900052000F066FBADF8060009217D
:104A600001A800F04DFB8DF80C00092101A8FEF70C
:104A700035FD0446002C04DA2146AFF6042001F08F
:104A8000ADFB092101A8FEF7DCFD5BE001A8FEF704
:104A9000C7FD15208DF808006C4890F87410406F21
:104AA000401C6A4A5067C8B28DF80900052000F022
:104AB0003AFBADF80600092101A800F021FB8DF8B2
:104AC0000C00092101A8FEF709FD0446002C04DAB8
:104AD0002146AFF65C2001F081FB092101A8FEF719
:104AE000B0FD2FE001A8FEF79BFD29208DF80800FE
:104AF000564890F87410406F401C544A5067C8B232
:104B00008DF80900052000F00EFBADF80600092124
:104B100001A800F0F5FA8DF80C00092101A8FEF7B4
:104B2000DDFC0446002C04DA2146AFF6B42001F087
:104B300055FB092101A8FEF784FD03E062A001F006
:104B40004DFB00BF00BF204607B030BD3EB500247E
:104B50006846FEF765FD17208DF804003B4890F885
:104B60007410406F401C394A5067C8B28DF8050078
:104B7000052000F0D8FAADF802000921684600F0DF
:104B8000BFFA8DF8080009216846FEF7A7FC044625
:104B9000002C03DA214652A001F020FB09216846CF
:104BA000FEF74FFD3EBD3EB500246846FEF738FDDA
:104BB00021208DF80400254890F87410406F401CA7
:104BC000224A5067C8B28DF8050000208DF8080011
:104BD000062000F0A8FAADF802000A21684600F0AD
:104BE0008FFA8DF809000A216846FEF777FC044623
:104BF000002C03DA21463AA001F0F0FA0A216846B7
:104C0000FEF71FFD3EBD70B5044625462CB93CA0FD
:104C100001F0E4FA4FF0FF3070BD412205F10801C8
:104C20003B4800F0CCFE0F21084890F8F420F53006
:104C30008154F53890F8F400401C044981F8F400E0
:104C4000052008700020E7E762050020440A0020E4
:104C500057694669207374617475733A20696E20D0
:104C600074657374206D6F64650A00005769466946
:104C7000207374617475733A206F75742074657352
:104C800074206D6F64650A00525353492069732084
:104C90002564200A00000000C00B0020D00B00207B
:104CA00072624372656174652053756363657373E3
:104CB000200A000072624372656174652046616972
:104CC0006C64200A000000004552523A2043666797
:104CD0004D6F6465206572726F72210A00000000DA
:104CE0004552525B4E54505D3A2075617274207784
:104CF00072697465206572726F72202564200A00E3
:104D00004E545020697320656D707479200A00003C
:104D10007C0B00202DE9F041A0B0054600260020C4
:104D20000390029000248046002735B9ACA001F022
:104D300055FA601E20B0BDE8F081FFF72FF903AAF5
:104D4000B149B248FFF709F80646002E71D1B0A06C
:104D500001F044FAAC4C20790F284FD00ADC0E2821
:104D600073D2DFE800F07216721A727243387272F0
:104D70004472453C182852D006DC112847D014282C
:104D800046D0162861D134E0222854D02A285CD19C
:104D900030E02046FFF731F95FE0E279A179A1A088
:104DA00001F01CFA02A8009007F10900BDF80C30D0
:104DB0001A1A95480830C11904AB4046FEF71DFD8C
:104DC00040B9E37904A92046029AFEF783FD99A031
:104DD00001F004FA41E02046FFF7B5F83DE0204637
:104DE000FFF7B1F82046FFF7E4FA36E000BF00BF56
:104DF00000BF00BF2046FFF78EF82EE02046FFF7E9
:104E0000A2F88FA001F0EAF9FFF7C5FA25E024E047
:104E10002046FFF780F88FA001F0E0F91DE0204662
:104E2000FFF779F82046FFF77EFA92A001F0D6F955
:104E300013E013E009E02046FFF76DF82046FFF786
:104E4000E2FE92A001F0CAF907E002212046FFF736
:104E50003CFA95A001F0C2F900BF0DE016F1020F77
:104E60000AD1694C01212046FFF72FFA94A001F0E6
:104E7000B5F96FF001005DE76348401E0078062831
:104E800053D2DFE800F052031425304100205E4980
:104E9000491E0870102201F20B11A1F15000FEF71B
:104EA00081FA13215848BA3000F0A2FD3EE00020FC
:104EB0005549491E0870012201F22B11A1F15D0034
:104EC000FEF770FA13215048CD3000F091FD2DE02F
:104ED00000204D49491E087008463831026FBB302A
:104EE000FEF760FA22E000204749491E08700C22B4
:104EF00001F59671A1F14B00FEF754FA13214248D7
:104F0000E03000F075FD11E000203F49491E0870B7
:104F1000412201F59C71A1F14400FEF743FA4121C1
:104F20003948F33000F064FD00E000BF00BF2846C0
:104F3000FEF7D3FE0020FDE62DE9F0418EB00646D7
:104F40000F464FF000086C46B81D85B23EB962A00E
:104F500001F044F94FF0FF300EB0BDE8F081FF20C2
:104F600004F8010B04F8010B281204F8010B04F8F3
:104F7000015B052004F8010B2348401E90F87410D3
:104F8000406F401C204A521E506704F8011B00204D
:104F900004F8010B04F8010B062004F8010B3A4653
:104FA00031460DF1090000F00AFD291D684600F0A8
:104FB000A7F80146E81C0DF80010291D6846FEF709
:104FC0008DFA8046B8F1000F04DA4146AFF658700A
:104FD00001F004F9291D6846FEF733FB0020BBE70A
:104FE00047697A7769747348616E646C65204572AD
:104FF000726F72202C20496C6C6567616C20506167
:1050000072616D0A00000000450A0020C00B0020FC
:10501000476574204F6E65205061636B6574210A8B
:1050200000000000666C6167202578202578200A42
:105030000000000041636B44617461203A200A0063
:105040007265706F72743A4D4355207265626F6F6E
:1050500074210A0041636B2050524F445543544918
:105060004F4E5F4D4F4445207375636365737320E6
:105070000A00000041636B204745545F555454209B
:1050800073756363657373200A00000041636B20CE
:105090004745545F4D6F64756C6520737563636538
:1050A0007373200A000000004552523A20636D6479
:1050B00020636F6465206572726F72210A000000C0
:1050C0004552523A20636865636B2073756D2065A5
:1050D00072726F72210A00005B4552525D2067694F
:1050E0007A77697473506173737468726F756768E7
:1050F00044617461204572726F72200A00000000E2
:1051000010B502460024002302B109B9002010BDE9
:10511000022303E0D05C2044C4B25B1C481E9842CA
:10512000F8D82046F3E701B581B000200090694629
:1051300001AA5078087010784870BDF800000CBDC6
:105140000146080601F47F4240EA022001F47F0292
:1051500040EA122040EA1160704710B50246002470
:10516000302A05DB392A03DCA2F13000C3B20EE09D
:10517000412A05DB462A03DCA2F13700C3B206E070
:10518000612A04DB662A02DCA2F15700C3B230298F
:1051900005DB392903DCA1F13000C4B20EE041295E
:1051A00005DB462903DCA1F13700C4B206E0612922
:1051B00004DB662902DCA1F15700C4B204EB031042
:1051C000C0B210BD70B5044600250026204600F090
:1051D0001AFC06460CB9681E70BD002505E0605D2E
:1051E000302801D00020F7E76D1CB542F7D301202D
:1051F000F2E72DE9F043034600BF00250024002616
:105200000027012901D002290DD1A3F1010C4FF093
:105210006408BCFBF8F4BCFBF8F908FB19C501F104
:105220000C06174609E04FF0640CB3FBFCF4B3FB2B
:10523000FCF80CFB18350E46174606F1010C4FF032
:105240001A080CFB08FC4FF00A08BCFBF8FC05EB45
:10525000950808EB94084FF0020909FB1488C44430
:10526000BC44ACF10100002806DB4FF0070C90FBBA
:10527000FCF80CFB180C07E04FF0070C90FBFCF857
:105280000CFB180C0CF1070C6046BDE8F0830146DE
:105290000A46C81701EB90708010A1EB800070B92E
:1052A000642091FBF0F300FB131030B94FF4C87089
:1052B00091FBF0F300FB131008B9012070470020A8
:1052C000FCE710B504462046FFF7E1FF10B14FF4AC
:1052D000B77010BD40F26D10FBE72DE9F04190B0C2
:1052E00080460E4640F2B2753022694901A800F0AE
:1052F00066FB344604F5E14400BF11E02846FFF7A1
:10530000E0FF074640F2A3207843B4EBC01F06D36A
:1053100040F2A3207843A4EBC0146D1C00E001E030
:10532000002CEBD100BFA8B2ADF83400002518E086
:10533000BDF83400FFF7ABFF08B11D20029001A8B3
:1053400050F8250040F2A3214843B4EBC01F07D317
:1053500001A850F825004843A4EBC0146D1C00E0E0
:1053600001E0002CE4D100BF1C200290681CC0B2F8
:105370008DF83600012506E04648844202D3241AFF
:105380006D1C00E001E0002CF6D100BFE8B28DF802
:1053900037004FF46160B4FBF0F0C0B28DF8380014
:1053A0004FF46160B4FBF0F100FB11403C21B0FB15
:1053B000F1F0C0B28DF839003C20B4FBF0F100FBF5
:1053C00011408DF83A00CDF83B600D98C8F8000008
:1053D0000E98C8F80400BDF83C00A8F808009DF835
:1053E0003E0088F80A0010B0BDE8F0812DE9F05FBA
:1053F00080460E46914600241CE016F814A060007A
:10540000401C16F800B0504600F0D3FA3038C5B250
:10541000092D01DDE81FC5B2584600F0CAFA303840
:10542000C7B2092F01DDF81FC7B207EB051008F856
:105430000400641C4C45E0DBBDE8F09FF0B503467A
:1054400000201EE00E5CF71706EB17773F1107F1FF
:1054500030050E5CF71706EB17773F11A6EB071721
:105460003037FCB2392D01DDEE1DF5B2392C01DDEE
:10547000E61DF4B203F81050012606EB40069C55D9
:10548000401C9042DEDB002603F81260F0BD0000F5
:10549000847700088051010030B502460B46002198
:1054A000002400250AB9481E30BD002108E0545CE4
:1054B000581A401E155C5554581A401E1454491C65
:1054C000B1EB530FF3D30020EEE710B503460020F5
:1054D000541AB4FBF3F010BD10B50346002002FBD4
:1054E000031010BD2DE9F04704460E46154600276F
:1054F0003146284600F0E0FA8146214600F014FBD0
:10550000804600F054FB07463846BDE8F0872DE999
:10551000F04704460E4615460027284600F042FB99
:105520008146214600F0CEFA8046314600F072FAFC
:1055300007463846BDE8F087024612B102F0070080
:1055400028B9082901D8002070470120FCE702F0A3
:105550000700C0F10800884201D30020F4E70120D1
:10556000F2E72DE9F0470546884614461E464FF0FF
:105570000009CA460027002314B9581EBDE8F08769
:10558000EB0841462846FFF7D7FF07463FB9E05CE6
:1055900005F0070106FA01F10843E0541DE0012F70
:1055A0001BD1F0B205F00701C1F1080140FA01F981
:1055B00005F00700C0F10801FF20084100EA060AD3
:1055C000581C205C40EA0900591C6054E05C05F05E
:1055D00007010AFA01F10843E0540020CEE72DE963
:1055E000F04F8FB004460F4690461D460026B24647
:1055F000B146B34600200E90B8F1000F00D025B997
:105600004FF0FF300FB0BDE8F08F4FEAD4092A46C3
:10561000414601A800F0D3F9012D09D9294601A876
:10562000FFF73AFFB0F1FF3F02D14FF0FF30E9E75B
:1056300039462046FFF780FF8246BAF1000F0CD1B1
:1056400001A810F8090004F007010841C7F1080299
:10565000FF2111410840064321E0BAF1010F1ED19C
:1056600001A909F10100085C04F00701C1F108017A
:10567000791AC1F10802FF21114100EA010B01A8CA
:1056800010F8090004F0070108410E9004F007002B
:10569000C0F108010BFA01F006430E9806433046AC
:1056A000B0E72DE9F04F8FB005460C4616469946F7
:1056B000189F4FF0000AD34600200E908046B9F1A3
:1056C000000F00D027B94FF0FF300FB0BDE8F08FCA
:1056D0003A46494601A800F072F9012F09D9394626
:1056E00001A8FFF7D9FEB0F1FF3F02D14FF0FF3024
:1056F000EBE731462046FFF71FFF8246BAF1000F65
:105700000CD101A8405D04F007010841C6F1080270
:10571000FF211141084040EA080821E0BAF1010FD9
:105720001ED101A9681C085C04F00701C1F1080141
:10573000711AC1F10802FF21114100EA010B01A811
:10574000405D04F0070108410E9004F00700C0F12D
:1057500008010BFA01F040EA08080E9848EA000830
:105760004046B2E72DE9F04704460D461746089E2D
:105770004FF00009CA46C8461BB94FF0FF30BDE8DC
:10578000F08739462846FFF7D7FE8046B8F1000F6C
:1057900007D1185D05F0070106FA01F10843185515
:1057A0001EE0B8F1010F1BD1F0B205F00701C1F105
:1057B000080140FA01F905F00700C0F10801FF20D7
:1057C000084100EA060A601C185C40EA0900611CF6
:1057D0005854185D05F007010AFA01F108431855FD
:1057E0000020CCE7014611B94FF0FF307047C86880
:1057F0004860C86888600020F8E7014611B94FF09A
:10580000FF3070470020C86048608860086000BFB3
:10581000F7E7014611B94FF0FF3070470868FCE721
:1058200000B5024612B94FF0FF3000BD50689168D4
:10583000884201D10020F8E750689168884203D27D
:1058400090685168401AF0E71046FFF7E2FF516890
:105850009368C91A401AE8E730B5044614B94FF006
:10586000FF3030BD2046FFF7D4FF05462046FFF746
:10587000D7FF281AF5E72DE9F04104460F461646F2
:10588000002514B9681EBDE8F08117B94FF0FF304C
:10589000F9E76068A168884214D22046FFF7C0FF8C
:1058A000B04201D9304602E02046FFF7B9FF054675
:1058B00061682A46384600F082F8606828446060D3
:1058C0002846E0E72046FFF7A4FF6168E268891AEE
:1058D000401AB0420AD9354661682A46384600F077
:1058E0006EF86068284460602846CCE72046FFF7E1
:1058F00090FF6168E268891A451A61682A4638464D
:1059000000F05DF8E0686060721B79192046FFF7CF
:10591000B2FF05442846B6E72DE9F04104460F469C
:105920001546002604B11FB94FF0FF30BDE8F081E5
:105930002046FFF791FFA84202D86FF00100F5E77B
:105940006068A16888422AD82046FFF762FFA168F4
:10595000E268891A461AB54213D8A0682A46394621
:1059600000F02DF8A0682844A0602046FFF751FF02
:10597000E1680844A168884201D1E068A060284637
:10598000D4E7A0683246394600F019F8E068A06014
:10599000AA1BB9192046FFF7BFFF3044C6E7A0682D
:1059A0002A46394600F00BF8A0682844A060284633
:1059B000BCE7A0F16101192900D82038704740EAFE
:1059C00001039B0703D009E008C9121F08C0042A7D
:1059D000FAD203E011F8013B00F8013B521EF9D264
:1059E0007047D2B201E000F8012B491EFBD270478C
:1059F0000022F6E710B513460A4604461946FFF79B
:105A0000F0FF204610BD421C10F8011B0029FBD1FD
:105A1000801A7047F0B480EA0102D40F4200B2EB62
:105A2000410F02D20246084611464A0042D0C30D39
:105A3000DDB2C1F3C752AD1A202D35DAC1F316011C
:105A400041F4000204B15242C5F1200602FA06F107
:105A50002A411044B3EBD05F23D0C4B1012DA0EB99
:105A6000C35009DCF0BC4FF0004202EAC352DBB283
:105A700000F5000000F0FFB8400000F1807000EB7E
:105A8000C350A0F1807040EAD170490009E0490894
:105A900041EAC071A0EBC35000F50000400800EBE4
:105AA000C350F0BC00F0DEB86142012202EB4101BC
:105AB000001BF6E7F0BC704781F00041AAE780F0D8
:105AC0000040A7E780EA010210B502F00043400061
:105AD00022D04A001FD0010E01EB1261C0F3560024
